:100000000C942A000C9447000C9447000C94470071
:100010000C9447000C9447000C9447000C94470044
:100020000C9447000C9447000C9447000C94470034
:100030000C9447000C9447000C9447000C94470024
:100040000C9447000C9447000C9447000C94470014
:100050000C94470011241FBECFE5D8E0DEBFCDBF12
:1000600010E0A0E6B0E0E8EBF7E002C005900D92EA
:10007000A837B107D9F720E0A8E7B0E001C01D928A
:10008000A937B207E1F70E9418030C94DA030C9425
:100090000000633051F118F4623041F0089564308B
:1000A00009F442C0653009F45EC00895413069F436
:1000B0004AB321E030E0B90102C0660F771F8A958C
:1000C000E2F7CB01842B8ABB089541116AC04AB381
:1000D00021E030E0B90102C0660F771F8A95E2F790
:1000E000CB01809584238ABB0895413069F447B3DE
:1000F00021E030E0B90102C0660F771F8A95E2F770
:10010000CB01842B87BB089541114BC047B321E03D
:1001100030E0B90102C0660F771F8A95E2F7CB0184
:100120008095842387BB0895413069F444B321E06E
:1001300030E0B90102C0660F771F8A95E2F7CB0164
:10014000842B84BB089541112CC044B321E030E0DE
:10015000B90102C0660F771F8A95E2F7CB0180953F
:10016000842384BB0895413069F441B321E030E039
:10017000B90102C0660F771F8A95E2F7CB01842B85
:1001800081BB089541110DC041B321E030E0B901B8
:1001900002C0660F771F8A95E2F7CB018095842312
:1001A00081BB0895633051F118F4623041F0089535
:1001B000643009F442C0653009F45EC008954130EE
:1001C00069F44BB321E030E0B90102C0660F771F3C
:1001D0008A95E2F7CB01842B8BBB089541116AC04D
:1001E0004BB321E030E0B90102C0660F771F8A955A
:1001F000E2F7CB01809584238BBB0895413069F4ED
:1002000048B321E030E0B90102C0660F771F8A953C
:10021000E2F7CB01842B88BB089541114BC048B352
:1002200021E030E0B90102C0660F771F8A95E2F73E
:10023000CB018095842388BB0895413069F445B390
:1002400021E030E0B90102C0660F771F8A95E2F71E
:10025000CB01842B85BB089541112CC045B321E00F
:1002600030E0B90102C0660F771F8A95E2F7CB0133
:100270008095842385BB0895413069F442B321E021
:1002800030E0B90102C0660F771F8A95E2F7CB0113
:10029000842B82BB089541110DC042B321E030E0B0
:1002A000B90102C0660F771F8A95E2F7CB018095EE
:1002B000842382BB0895833081F018F4823031F0BA
:1002C0000895843089F08530B1F008958AB38F7035
:1002D0008ABB8AB3682B6ABB08958AB38F708ABBC6
:1002E0008AB3682B6ABB08958AB38F708ABB8AB3BE
:1002F000682B6ABB08958AB38F708ABB8AB3682B58
:100300006ABB0895833081F018F4823031F008958B
:10031000843089F08530B1F008958BB38F708BBB3A
:100320008BB3682B6BBB089588B38F7088BB88B381
:10033000682B68BB089585B38F7085BB85B3682B28
:1003400065BB089582B38F7082BB82B3682B62BB9A
:100350000895CF93C82F40E065E080E00E94D2006E
:1003600040E065E081E00E94D2006C2F607F85E074
:100370000E94820141E065E082E00E94D2008FE3AA
:100380009FE10197F1F700C0000040E065E082E0E6
:100390000E94D200809178008130B9F490E1C99F29
:1003A000B001112485E00E94820141E065E082E015
:1003B0000E94D2008FE39FE10197F1F700C0000097
:1003C00040E065E082E00E94D2008FE39FE1019768
:1003D000F1F700C00000CF9108951092780041E03D
:1003E00065E080E00E94490041E065E081E00E9414
:1003F000490041E065E082E00E94490060EF85E04D
:100400000E945B012FEF86E791E0215080409040F1
:10041000E1F700C0000080E20E94A90180E20E9492
:10042000A90180E80E94A9018FE39FE10197F1F7FC
:1004300000C0000080E00E94A90180EE0E94A90196
:100440008FE39FE10197F1F700C0000080E00E9478
:10045000A90180E10E94A9018FE59AEE0197F1F7C9
:1004600000C0000080E00E94A90180E20E94A90172
:1004700081E0809378000895CF93C82F41E065E034
:1004800080E00E94D20040E065E081E00E94D2005E
:100490006C2F607F85E00E94820141E065E082E090
:1004A0000E94D2008FE39FE10197F1F700C00000A6
:1004B00040E065E082E00E94D20090E1C99FB00177
:1004C000112485E00E94820141E065E082E00E9403
:1004D000D2008FE39FE10197F1F700C0000040E0F8
:1004E00065E082E00E94D200CF9108950F931F93A0
:1004F000CF938C01C0E003C00E943C02CF5FF801A3
:10050000EC0FF11D80818111F7CFCF911F910F91D9
:1005100008952F923F924F925F926F927F928F92A7
:100520009F92AF92BF92CF92DF92EF92FF920F9382
:100530001F93CF93DF93CDB7DEB767970FB6F894CD
:10054000DEBF0FBECDBF622E732E842E5D8B6E8BF1
:100550007F8B282E392E912C31C0492C512C0F2EF7
:10056000FAE0AF2EF02DB12CC12CD12CE12CF12CC6
:1005700000E010E0262D372D482D5D896E897F899A
:10058000822D932D0E946F03E1E0F0E0EC0FFD1F40
:10059000E40DF51D20839394262D372D482D5D897C
:1005A0006E897F89822D932D0E947103622E732E96
:1005B000842E5D8B6E8B7F8B282E392E262D372D2A
:1005C000482D5D896E897F89822D932DA0E00E9440
:1005D000CE0319F6892C912C81E0881A91080DC060
:1005E000E1E0F0E0EC0FFD1FE80DF91D8081805D7A
:1005F0000E943C0281E0881A910899208CF7679646
:100600000FB6F894DEBF0FBECDBFDF91CF911F9123
:100610000F91FF90EF90DF90CF90BF90AF909F90A1
:100620008F907F906F905F904F903F902F900895A4
:100630000E94ED0181E00E94A90180E690E00E9405
:10064000760225E13DEC4BE557E060E070E080E0AC
:1006500090E00E9489022FEF83ED90E321508040CB
:100660009040E1F700C0000081E00E94A90183E60C
:1006700090E00E9476022FEF83ED90E321508040BE
:100680009040E1F700C0000081E00E94A9018CE6E3
:1006900090E00E94760220E432EE41E050E060E01B
:1006A00070E080E090E00E9489022FEF83ED90E3FC
:1006B000215080409040E1F700C0000081E00E949E
:1006C000A9018FE690E00E9476022FEF83ED90E380
:1006D000215080409040E1F700C00000ABCF68940B
:1006E00001C0E8948F929F92CF93DF930E947D0385
:1006F000DF91CF919F908F90089588249924F401E1
:10070000E401B0E49F93AA279A158B049C04ED059D
:10071000FE05CF05D007A10798F4AD2FDC2FCF2F12
:10072000FE2FE92D982C892E982F872F762F652F55
:10073000542F432F322F2227B85031F7BF9127C0B3
:100740001B2EBF91BB27220F331F441F551F661F4F
:10075000771F881F991F881C991CEE1FFF1FCC1F35
:10076000DD1FAA1FBB1F8A149B04EC05FD05CE05E7
:10077000DF05A007B10748F08A189B08EC09FD09BE
:10078000CE09DF09A00BB10B21601A94E1F62EF41B
:100790009401AF01BE01CD01000C08950024A7FD16
:1007A00000942A1730054005500560057005800546
:0807B00090050895F894FFCFB5
:1007B800583D0048656C6C6F6F6F6F00593D00774E
:0807C800656C636F6D650000B4
:00000001FF
