:100000000C943C000C944E000C944E000C944E004A
:100010000C94A4030C9438040C944E000C944E00E1
:100020000C944E000C944E000C94E9020C947D0349
:100030000C944E000C944E000C944E000C944E0008
:100040000C944E000C944E000C944E000C944E00F8
:100050000C944E00CD01D701E1017A02EB017A0246
:10006000F501FF01090213022B0235023F0249028A
:1000700053025D026702710211241FBECFE5D8E072
:10008000DEBFCDBF20E0A0E6B0E001C01D92A938E0
:10009000B207E1F70E94D9000C948D040C94000083
:1000A000633051F118F4623041F00895643009F47E
:1000B00042C0653009F45EC00895413069F44AB326
:1000C00021E030E0B90102C0660F771F8A95E2F7A0
:1000D000CB01842B8ABB089541116AC04AB321E049
:1000E00030E0B90102C0660F771F8A95E2F7CB01B5
:1000F000809584238ABB0895413069F447B321E099
:1001000030E0B90102C0660F771F8A95E2F7CB0194
:10011000842B87BB089541114BC047B321E030E0E9
:10012000B90102C0660F771F8A95E2F7CB0180956F
:10013000842387BB0895413069F444B321E030E063
:10014000B90102C0660F771F8A95E2F7CB01842BB5
:1001500084BB089541112CC044B321E030E0B901C3
:1001600002C0660F771F8A95E2F7CB018095842342
:1001700084BB0895413069F441B321E030E0B90116
:1001800002C0660F771F8A95E2F7CB01842B81BBF3
:10019000089541110DC041B321E030E0B90102C022
:1001A000660F771F8A95E2F7CB018095842381BB88
:1001B000089541E065E080E00E94500041E065E084
:1001C00081E00E9450000EE02BE045E06AE581E00E
:1001D0000E9484022BE043E06CE380E00E948402F2
:1001E000FFCF611127C0833081F018F4823031F0E5
:1001F0000895843089F08530B1F0089583B78F7BFE
:1002000083BF83B7877F83BF089583B7806483BF2D
:1002100083B7877F83BF089583B78F7B83BF83B7FF
:10022000886083BF089583B7806483BF83B7886085
:1002300083BF0895613031F5833081F018F4823046
:1002400031F00895843089F08530B1F0089585B596
:100250008F7B85BD85B5877F85BD089585B5806415
:1002600085BD85B5877F85BD089585B58F7B85BDA7
:1002700085B5886085BD089585B5806485BD85B5E3
:10028000886085BD089561113DC0863039F483B71B
:100290008F7E83BF83B78F7D83BF089521E0873032
:1002A00009F020E091E08A3009F090E0922B39F0DB
:1002B00083B7806183BF83B78F7D83BF089521E0BB
:1002C000883009F020E091E08B3009F090E0922B2B
:1002D00039F083B78F7E83BF83B7806283BF089571
:1002E00021E0893009F020E091E08C3009F090E0C5
:1002F000922B09F444C083B7806183BF83B78062C7
:1003000083BF08956130D9F5863039F485B58F7E85
:1003100085BD85B58F7D85BD089521E0873009F0C5
:1003200020E091E08A3009F090E0922B39F085B519
:10033000806185BD85B58F7D85BD089521E08830BC
:1003400009F020E091E08B3009F090E0922B39F039
:1003500085B58F7E85BD85B5806285BD089521E018
:10036000893009F020E091E08C3009F090E0922B88
:1003700031F085B5806185BD85B5806285BD089504
:1003800061115BC090E0FC013D97EA30F10508F097
:10039000B1C0E65DFF4F0C94730483B78E7F83BFBB
:1003A00083B78D7F83BF83B78B7F83BF089583B768
:1003B000816083BF83B78D7F83BF83B78B7F83BF0C
:1003C000089583B78E7F83BF83B7826083BF83B76F
:1003D0008B7F83BF089583B7816083BF83B78260BB
:1003E00083BF83B78B7F83BF089583B78E7F83BF1F
:1003F00083B78D7F83BF83B7846083BF089583B73E
:10040000816083BF83B78D7F83BF83B7846083BFE1
:10041000089583B78E7F83BF83B7826083BF83B71E
:10042000846083BF089583B7816083BF83B7826090
:1004300083BF83B7846083BF0895613009F05AC0D9
:1004400090E0FC013D97E830F10508F053C0EC5C0A
:10045000FF4F0C94730485B58E7F85BD85B58D7F68
:1004600085BD85B58B7F85BD089585B5816085BDCA
:1004700085B58D7F85BD85B58B7F85BD089585B597
:100480008E7F85BD85B5826085BD85B58B7F85BD39
:10049000089585B5816085BD85B5826085BD83B7CA
:1004A0008B7F83BF089585B58E7F85BD85B58D7F94
:1004B00085BD85B5846085BD089585B5816085BDA0
:1004C00085B58D7F85BD85B5846085BD089585B56D
:1004D0008E7F85BD85B5826085BD85B5846085BD0F
:1004E000089585B5816085BD85B5826085BD85B57A
:1004F000846085BD0895662319F0613019F0089570
:100500008CBF089583BD0895FF920F931F93CF93DF
:10051000DF93C82FF62ED42F122F682F842F0E941E
:10052000F1006C2F812F0E9443016C2F802F0E94BD
:10053000C001CC2319F0C13039F145C041E063E07E
:1005400083E00E945000D53069F42FEFF29EC00185
:10055000112464E670E00E945F04862F6C2F0E94D5
:100560007B0231C0D33079F52EEF31E0F29EC0012D
:10057000F39E900D112464E670E00E945F04862FC4
:100580006C2F0E947B021FC041E065E087E00E9463
:100590005000D53059F49F2D80E064E670E00E9451
:1005A0005F04862F6C2F0E947B020DC0D33059F45C
:1005B0009F2D990F80E064E670E00E945F04862F13
:1005C0006C2F0E947B02DF91CF911F910F91FF90C2
:1005D00008951F920F920FB60F9211242F933F93FD
:1005E0004F935F936F937F938F939F93AF93BF933B
:1005F000EF93FF9380917700811132C08091780052
:10060000813071F580916C0090916D00A0916E0029
:10061000B0916F0040918000509181006091820004
:100620007091830084179507A607B70771F4E091CE
:100630007E00F0917F00099510926C0010926D0081
:1006400010926E0010926F000BC00196A11DB11D9B
:1006500080936C0090936D00A0936E00B0936F0038
:1006600080918400813059F58091680090916900F3
:10067000A0916A00B0916B00409180005091810080
:10068000609182007091830084179507A607B707D1
:1006900059F4109284001092680010926900109230
:1006A0006A0010926B000BC00196A11DB11D8093D2
:1006B000680090936900A0936A00B0936B008091EA
:1006C0007700811109C080917600813029F4E09192
:1006D0007E00F0917F000995FF91EF91BF91AF915E
:1006E0009F918F917F916F915F914F913F912F914A
:1006F0000F900FBE0F901F9018951F920F920FB67C
:100700000F9211242F933F934F935F936F937F9397
:100710008F939F93AF93BF93EF93FF93E0917400F8
:10072000F09175000995FF91EF91BF91AF919F9165
:100730008F917F916F915F914F913F912F910F908A
:100740000FBE0F901F9018951F920F920FB60F9229
:1007500011242F933F934F935F936F937F938F93C6
:100760009F93AF93BF93EF93FF9380917700813076
:1007700091F580917800813071F5809164009091BD
:100780006500A0916600B091670040918000509193
:100790008100609182007091830084179507A607FD
:1007A000B70771F4E0917000F09171000995109213
:1007B00064001092650010926600109267000BC0F2
:1007C0000196A11DB11D8093640090936500A093D4
:1007D0006600B093670080917D00813059F580916B
:1007E000600090916100A0916200B091630040911F
:1007F0008500509186006091870070918800841771
:100800009507A607B70759F410927D001092600073
:100810001092610010926200109263000BC001966A
:10082000A11DB11D8093600090936100A0936200B0
:10083000B093630080917700813049F48091760015
:10084000813029F4E0917000F09171000995FF91D9
:10085000EF91BF91AF919F918F917F916F915F9138
:100860004F913F912F910F900FBE0F901F901895B1
:100870001F920F920FB60F9211242F933F934F9315
:100880005F936F937F938F939F93AF93BF93EF93F8
:10089000FF93E0917B00F0917C000995FF91EF912F
:1008A000BF91AF919F918F917F916F915F914F9188
:1008B0003F912F910F900FBE0F901F90189597FBAF
:1008C000072E16F4009407D077FD09D00E94790412
:1008D00007FC05D03EF4909581959F4F0895709543
:1008E00061957F4F0895EE0FFF1F0590F491E02D65
:1008F0000994AA1BBB1B51E107C0AA1FBB1FA61767
:10090000B70710F0A61BB70B881F991F5A95A9F7B8
:0E09100080959095BC01CD010895F894FFCF1D
:00000001FF
