S01200004144435F4472697665722E737265637F
S11300000C9439000C9456000C9456000C94560031
S11300100C9456000C9456000C9456000C94560004
S11300200C9456000C9456000C9456000C945600F4
S11300300C9456000C9456000C9456000C945600E4
S11300400C94CB010C9456000C9456000C9456005E
S11300500C9456006700770087009700A700B7004C
S1130060C700D70030013A0144014E015801620132
S11300706C0111241FBECFE5D8E0DEBFCDBF10E078
S1130080A0E6B0E0ECE9FCE002C005900D92AE37CA
S1130090B107D9F720E0AEE7B0E001C01D92A13866
S11300A0B207E1F70E9487050C944C060C940000FB
S11300B086B1806886B9089590E0FC017397E830B2
S11300C0F10508F083C0E65DFF4F0C94DB0587B1B2
S11300D08E7F87B987B18D7F87B987B18B7F87B9C9
S11300E087B1877F87B987B18F7E87B9089587B134
S11300F0816087B987B18D7F87B987B18B7F87B9D5
S113010087B1877F87B987B18F7E87B9089587B113
S11301108E7F87B987B1826087B987B18B7F87B9B2
S113012087B1877F87B987B18F7E87B9089587B1F3
S1130130816087B987B1826087B987B18B7F87B9BE
S113014087B1877F87B987B18F7E87B9089587B1D3
S11301508E7F87B987B18D7F87B987B1846087B96E
S113016087B1877F87B987B18F7E87B9089587B1B3
S1130170816087B987B18D7F87B987B1846087B97A
S113018087B1877F87B987B18F7E87B9089587B193
S11301908E7F87B987B1826087B987B1846087B958
S11301A087B1877F87B987B18F7E87B9089587B173
S11301B0816087B987B1826087B987B1846087B964
S11301C087B1877F87B987B18F7E87B908958130DA
S11301D069F028F0823089F08330B1F0089587B156
S11301E08F7B87B987B18F7787B9089587B180648A
S11301F087B987B18F7787B9089587B18F7B87B91E
S113020087B1806887B9089587B1806487B987B159
S1130210806887B908958B3119F08C3129F00895DD
S113022087B18F7D87B9089587B1806287B90895B2
S11302308D3119F08E3129F0089586B1806286B926
S1130240089586B18F7D86B9089590E0FC013497B6
S1130250E730F10508F049C0EE5CFF4F0C94DB0574
S113026086B18E7F86B986B18D7F86B986B18B7F44
S113027086B9089586B18E7F86B986B1826086B9C3
S113028086B18B7F86B9089586B1816086B986B1BF
S1130290826086B986B18B7F86B9089586B18E7FD8
S11302A086B986B18D7F86B986B1846086B9089592
S11302B086B1816086B986B18D7F86B986B1846046
S11302C086B9089586B18E7F86B986B1826086B973
S11302D086B1846086B9089586B1816086B986B195
S11302E0826086B986B1846086B908958F3119F029
S11302F0803241F0089586B1886086B98FB78068EE
S11303008FBF089586B1877F86B90895EF92FF92D3
S11303100F931F93CF93DF93F82E162FD42FC22F52
S11303200E9458008F2D0E945C00812F0E94E700DC
S11303308D2F0E940B018C2F0E941801802F0E9488
S113034025018E2D0E947601DF91CF911F910F918F
S1130350FF90EF90089586B1806486B90895CF9395
S1130360C82F40E062E00E94F2018C2F0E945C00E2
S11303700E94AB01349BFECF86B1806186B986E0D2
S11303808A95F1F700C024B185B190E0982F8827B1
S1130390822BCF9108951F920F920FB60F921124C2
S11303A02F933F934F935F936F937F938F939F9379
S11303B0AF93BF93EF93FF93E0917F00F0918000A0
S11303C00995FF91EF91BF91AF919F918F917F918B
S11303D06F915F914F913F912F910F900FBE0F90AE
S11303E01F901895633051F118F4623041F008956C
S11303F0643009F442C0653009F45EC008954130A8
S113040069F44AB321E030E0B90102C0660F771FF6
S11304108A95E2F7CB01842B8ABB089541116AC007
S11304204AB321E030E0B90102C0660F771F8A9514
S1130430E2F7CB01809584238ABB0895413069F4A7
S113044047B321E030E0B90102C0660F771F8A95F7
S1130450E2F7CB01842B87BB089541114BC047B30E
S113046021E030E0B90102C0660F771F8A95E2F7F8
S1130470CB018095842387BB0895413069F444B34C
S113048021E030E0B90102C0660F771F8A95E2F7D8
S1130490CB01842B84BB089541112CC044B321E0CB
S11304A030E0B90102C0660F771F8A95E2F7CB01ED
S11304B08095842384BB0895413069F441B321E0DD
S11304C030E0B90102C0660F771F8A95E2F7CB01CD
S11304D0842B81BB089541110DC041B321E030E06C
S11304E0B90102C0660F771F8A95E2F7CB018095A8
S11304F0842381BB0895633051F118F4623041F0D4
S11305000895643009F442C0653009F45EC008956A
S1130510413069F44BB321E030E0B90102C0660F09
S1130520771F8A95E2F7CB01842B8BBB0895411189
S11305306AC04BB321E030E0B90102C0660F771FF7
S11305408A95E2F7CB01809584238BBB08954130D3
S113055069F448B321E030E0B90102C0660F771FA7
S11305608A95E2F7CB01842B88BB089541114BC0D7
S113057048B321E030E0B90102C0660F771F8A95C5
S1130580E2F7CB018095842388BB0895413069F458
S113059045B321E030E0B90102C0660F771F8A95A8
S11305A0E2F7CB01842B85BB089541112CC045B3E0
S11305B021E030E0B90102C0660F771F8A95E2F7A7
S11305C0CB018095842385BB0895413069F442B3FF
S11305D021E030E0B90102C0660F771F8A95E2F787
S11305E0CB01842B82BB089541110DC042B321E09D
S11305F030E0B90102C0660F771F8A95E2F7CB019C
S11306008095842382BB08958330D1F118F482301D
S113061041F00895843009F462C0853009F48EC035
S113062008956130A9F40EC04AB381E090E0022E2F
S113063002C0880F991F0A94E2F7842B8ABB2F5FAC
S11306403F4F02C020E030E02830310568F30895C0
S1130650662381F008954AB381E090E0022E02C03F
S1130660880F991F0A94E2F7809584238ABB2F5F31
S11306703F4F02C020E030E02830310560F3089598
S11306806130A9F40EC047B381E090E0022E02C0AD
S1130690880F991F0A94E2F7842B87BB2F5F3F4F83
S11306A002C020E030E02830310568F30895662365
S11306B081F0089547B381E090E0022E02C0880FD4
S11306C0991F0A94E2F78095842387BB2F5F3F4FDD
S11306D002C020E030E02830310560F30895613035
S11306E0A9F40EC044B381E090E0022E02C0880F4A
S11306F0991F0A94E2F7842B84BB2F5F3F4F02C0FB
S113070020E030E02830310568F30895662381F055
S1130710089544B381E090E0022E02C0880F991F2F
S11307200A94E2F78095842384BB2F5F3F4F02C075
S113073020E030E02830310560F308956130A9F4F9
S11307400EC041B381E090E0022E02C0880F991FD1
S11307500A94E2F7842B81BB2F5F3F4F02C020E055
S113076030E02830310568F30895662381F0089558
S113077041B381E090E0022E02C0880F991F0A94D1
S1130780E2F78095842381BB2F5F3F4F02C020E0B6
S113079030E02830310560F30895833081F018F497
S11307A0823031F00895843089F08530B1F00895B5
S11307B08AB38F708ABB8AB3682B6ABB08958AB3E5
S11307C08F708ABB8AB3682B6ABB08958AB38F7013
S11307D08ABB8AB3682B6ABB08958AB38F708ABBBD
S11307E08AB3682B6ABB0895833081F018F4823091
S11307F031F00895843089F08530B1F008958BB3D9
S11308008F708BBB8BB3682B6BBB089588B38F70D1
S113081088BB88B3682B68BB089585B38F7085BB8C
S113082085B3682B65BB089582B38F7082BB82B396
S1130830682B62BB0895CF93C82F40E065E080E049
S11308400E947B0240E065E081E00E947B026C2F05
S1130850607F85E00E94F40341E065E082E00E944D
S11308607B028FE99FE00197F1F700C0000040E0B0
S113087065E082E00E947B0280917E008130B9F4C1
S113088090E1C99FB001112485E00E94F40341E086
S113089065E082E00E947B028FE99FE00197F1F717
S11308A000C0000040E065E082E00E947B028FE926
S11308B09FE00197F1F700C00000CF9108951092D6
S11308C07E0041E065E080E00E94F20141E065E0E5
S11308D081E00E94F20141E065E082E00E94F201C1
S11308E060EF85E00E94CD038FE59AEE0197F1F762
S11308F000C0000080E20E941B0480E20E941B04EE
S113090080E80E941B048FE99FE00197F1F700C083
S1130910000080E00E941B0480EE0E941B048FE90B
S11309209FE00197F1F700C0000080E00E941B04E3
S113093080E10E941B048FE295E70197F1F700C064
S1130940000080E00E941B0480E20E941B0481E0FE
S113095080937E000895CF93C82F41E065E080E046
S11309600E947B0240E065E081E00E947B026C2FE4
S1130970607F85E00E94F40341E065E082E00E942C
S11309807B028FE99FE00197F1F700C0000040E08F
S113099065E082E00E947B0290E1C99FB0011124CE
S11309A085E00E94F40341E065E082E00E947B025E
S11309B08FE99FE00197F1F700C0000040E065E097
S11309C082E00E947B02CF9108950F931F93CF93EF
S11309D08C01C0E003C00E94AB04CF5FF801EC0FB0
S11309E0F11D80818111F7CFCF911F910F9108954F
S11309F02F923F924F925F926F927F928F929F922B
S1130A00AF92BF92CF92DF92EF92FF920F931F9318
S1130A10CF93DF93CDB7DEB767970FB6F894DEBFF9
S1130A200FBECDBF622E732E842E5D8B6E8B7F8B9B
S1130A30282E392E912C31C0492C512C0F2EFAE03E
S1130A40AF2EF02DB12CC12CD12CE12CF12C00E0D7
S1130A5010E0262D372D482D5D896E897F89822DE2
S1130A60932D0E94E105E1E0F0E0EC0FFD1FE40DA1
S1130A70F51D20839394262D372D482D5D896E898D
S1130A807F89822D932D0E94E305622E732E842E7E
S1130A905D8B6E8B7F8B282E392E262D372D482D7E
S1130AA05D896E897F89822D932DA0E00E94400686
S1130AB019F6892C912C81E0881A91080DC0E1E087
S1130AC0F0E0EC0FFD1FE80DF91D8081805D0E94B0
S1130AD0AB0481E0881A910899208CF767960FB6C9
S1130AE0F894DEBF0FBECDBFDF91CF911F910F9160
S1130AF0FF90EF90DF90CF90BF90AF909F908F903A
S1130B007F906F905F904F903F902F9008950E9438
S1130B105F0461E084E00E9404036894EE24E5F835
S1130B2009E02EE14BE161E083E10E9486012FEFB1
S1130B3080E792E0215080409040E1F700C000003F
S1130B4081E00E941B0480E690E00E94E50483E1BA
S1130B500E94AF01282F392F40E050E060E070E0A0
S1130B6080E090E00E94F8042FEF89E698E121509C
S1130B7080409040E1F700C0000081E00E941B0427
S1130B808FE690E00E94E50484E10E94AF01282FE3
S1130B90392F40E050E060E070E080E090E00E9497
S1130BA0F8042FEF89E698E1215080409040E1F766
S1130BB000C00000C5CFEE0FFF1F0590F491E02D9B
S1130BC00994689401C0E8948F929F92CF93DF9325
S1130BD00E94EF05DF91CF919F908F900895882414
S1130BE09924F401E401B0E49F93AA279A158B0495
S1130BF09C04ED05FE05CF05D007A10798F4AD2FA1
S1130C00DC2FCF2FFE2FE92D982C892E982F872F9C
S1130C10762F652F542F432F322F2227B85031F7C8
S1130C20BF9127C01B2EBF91BB27220F331F441F28
S1130C30551F661F771F881F991F881C991CEE1F5C
S1130C40FF1FCC1FDD1FAA1FBB1F8A149B04EC05CA
S1130C50FD05CE05DF05A007B10748F08A189B08FB
S1130C60EC09FD09CE09DF09A00BB10B21601A9430
S1130C70E1F62EF49401AF01BE01CD01000C0895FC
S1130C800024A7FD00942A1730054005500560058F
S10F0C907005800590050895F894FFCFCE
S1130C9C41444320726573756C7431203D200041CE
S1110CAC444320726573756C7432203D200041
S9030000FC
