:100000000C942A000C9447000C9447000C94470071
:100010000C9447000C9447000C9447000C94470044
:100020000C9447000C9447000C9447000C94470034
:100030000C9447000C9447000C9447000C94470024
:100040000C9447000C9447000C9447000C94470014
:100050000C94470011241FBECFE5D8E0DEBFCDBF12
:1000600010E0A0E6B0E0ECE9F6E002C005900D92E9
:10007000A037B107D9F720E0A0E7B0E001C01D929A
:10008000A137B207E1F70E9443030C944C030C9490
:100090000000633051F118F4623041F0089564308B
:1000A00009F442C0653009F45EC00895413069F436
:1000B0004AB321E030E0B90102C0660F771F8A958C
:1000C000E2F7CB01842B8ABB089541116AC04AB381
:1000D00021E030E0B90102C0660F771F8A95E2F790
:1000E000CB01809584238ABB0895413069F447B3DE
:1000F00021E030E0B90102C0660F771F8A95E2F770
:10010000CB01842B87BB089541114BC047B321E03D
:1001100030E0B90102C0660F771F8A95E2F7CB0184
:100120008095842387BB0895413069F444B321E06E
:1001300030E0B90102C0660F771F8A95E2F7CB0164
:10014000842B84BB089541112CC044B321E030E0DE
:10015000B90102C0660F771F8A95E2F7CB0180953F
:10016000842384BB0895413069F441B321E030E039
:10017000B90102C0660F771F8A95E2F7CB01842B85
:1001800081BB089541110DC041B321E030E0B901B8
:1001900002C0660F771F8A95E2F7CB018095842312
:1001A00081BB0895633051F118F4623041F0089535
:1001B000643009F442C0653009F45EC008954130EE
:1001C00069F44BB321E030E0B90102C0660F771F3C
:1001D0008A95E2F7CB01842B8BBB089541116AC04D
:1001E0004BB321E030E0B90102C0660F771F8A955A
:1001F000E2F7CB01809584238BBB0895413069F4ED
:1002000048B321E030E0B90102C0660F771F8A953C
:10021000E2F7CB01842B88BB089541114BC048B352
:1002200021E030E0B90102C0660F771F8A95E2F73E
:10023000CB018095842388BB0895413069F445B390
:1002400021E030E0B90102C0660F771F8A95E2F71E
:10025000CB01842B85BB089541112CC045B321E00F
:1002600030E0B90102C0660F771F8A95E2F7CB0133
:100270008095842385BB0895413069F442B321E021
:1002800030E0B90102C0660F771F8A95E2F7CB0113
:10029000842B82BB089541110DC042B321E030E0B0
:1002A000B90102C0660F771F8A95E2F7CB018095EE
:1002B000842382BB0895833059F018F4823031F0E2
:1002C0000895843039F0853039F008956BBB089576
:1002D00068BB089565BB089562BB08956330A1F0C3
:1002E00018F4623031F031C06430C9F0653011F17A
:1002F0002CC029B330E0A90102C0559547958A95D5
:10030000E2F7CA018170089526B330E0A90102C066
:10031000559547958A95E2F7CA018170089523B3F0
:1003200030E0A90102C0559547958A95E2F7CA01C8
:100330008170089520B330E0A90102C0559547951A
:100340008A95E2F7CA018170089580E008958330AC
:1003500081F018F4823031F00895843089F08530CE
:10036000B1F008958AB38F708ABB8AB3682B6ABBD9
:1003700008958AB38F708ABB8AB3682B6ABB0895CD
:100380008AB38F708ABB8AB3682B6ABB08958AB31D
:100390008F708ABB8AB3682B6ABB0895833081F063
:1003A00018F4823031F00895843089F08530B1F04E
:1003B00008958BB38F708BBB8BB3682B6BBB089589
:1003C00088B38F7088BB88B3682B68BB089585B3EA
:1003D0008F7085BB85B3682B65BB089582B38F7022
:1003E00082BB82B3682B62BB089540E062E080E08C
:1003F0000E94490040E062E081E00E94490040E044
:1004000062E082E00E94490040E062E083E00E94F6
:10041000490041E062E084E00E94490041E062E07E
:1004200085E00E94490041E062E086E00E944900C8
:1004300041E062E087E00E9449006FEF82E00E94A5
:100440005B0108950F931F93CF93DF9300D0CDB737
:10045000DEB7198284E08A8310E000E084E08A83BA
:100460003AC08A8140E062E00E94D200198228C02E
:10047000898162E00E946E0181111FC0E9812E2FE7
:1004800030E08A81E82FF0E0CF010497F901EE0F08
:10049000FF1FEE0FFF1FE05AFF4FE80FF91F1081FB
:1004A000898162E00E946E018823D1F38FE19EE48E
:1004B0000197F1F700C0000001E089818F5F898317
:1004C00089818430A8F28A8141E062E00E94D200F2
:1004D0008A818F5F8A838A81883018F2013009F01F
:1004E000BDCF812F0F900F90DF91CF911F910F9172
:1004F0000895CF93C82F40E065E080E00E94D200CD
:1005000040E065E081E00E94D2006C2F607F85E0D2
:100510000E94CE0141E065E082E00E94D2008FE9B6
:100520009FE00197F1F700C0000040E065E082E045
:100530000E94D200809170008130B9F490E1C99F8F
:10054000B001112485E00E94CE0141E065E082E027
:100550000E94D2008FE99FE00197F1F700C00000F0
:1005600040E065E082E00E94D2008FE99FE00197C1
:10057000F1F700C00000CF9108951092700041E0A3
:1005800065E080E00E94490041E065E081E00E9472
:10059000490041E065E082E00E94490060EF85E0AB
:1005A0000E94A7018FE59AEE0197F1F700C00000C5
:1005B00080E20E94790280E20E94790280E80E9433
:1005C00079028FE99FE00197F1F700C0000080E019
:1005D0000E94790280EE0E9479028FE99FE00197E4
:1005E000F1F700C0000080E00E94790280E10E94E3
:1005F00079028FE295E70197F1F700C0000080E0F3
:100600000E94790280E20E94790281E0809370006A
:100610000895CF93C82F41E065E080E00E94D200AA
:1006200040E065E081E00E94D2006C2F607F85E0B1
:100630000E94CE0141E065E082E00E94D2008FE995
:100640009FE00197F1F700C0000040E065E082E024
:100650000E94D20090E1C99FB001112485E00E9460
:10066000CE0141E065E082E00E94D2008FE99FE088
:100670000197F1F700C0000040E065E082E00E94D1
:10068000D200CF9108950E94BD020E94F5010E9400
:0C06900022020E940903FBCFF894FFCF68
:10069C003738392F3435362A3132332D20303D2B33
:00000001FF
