S012000044494F5F4472697665722E737265636B
S11300000C942A000C9434000C9434000C943400A6
S11300100C9434000C9434000C9434000C9434008C
S11300200C9434000C9434000C9434000C9434007C
S11300300C9434000C9434000C9434000C9434006C
S11300400C9434000C9434000C9434000C9434005C
S11300500C94340011241FBECFE5D8E0DEBFCDBF21
S11300600E945D020C9497020C940000633051F1DD
S113007018F4623041F00895643009F442C06530E8
S113008009F45EC00895413069F44AB321E030E0D8
S1130090B90102C0660F771F8A95E2F7CB01842B62
S11300A08ABB089541116AC04AB321E030E0B90126
S11300B002C0660F771F8A95E2F7CB0180958423EF
S11300C08ABB0895413069F447B321E030E0B901B7
S11300D002C0660F771F8A95E2F7CB01842B87BB9A
S11300E0089541114BC047B321E030E0B90102C08B
S11300F0660F771F8A95E2F7CB018095842387BB2F
S11301000895413069F444B321E030E0B90102C0FC
S1130110660F771F8A95E2F7CB01842B84BB089581
S113012041112CC044B321E030E0B90102C0660F94
S1130130771F8A95E2F7CB018095842384BB0895C9
S1130140413069F441B321E030E0B90102C0660FE7
S1130150771F8A95E2F7CB01842B81BB0895411167
S11301600DC041B321E030E0B90102C0660F771F32
S11301708A95E2F7CB018095842381BB089563308F
S113018051F118F4623041F00895643009F442C02A
S1130190653009F45EC00895413069F44BB321E041
S11301A030E0B90102C0660F771F8A95E2F7CB01F0
S11301B0842B8BBB089541116AC04BB321E030E01E
S11301C0B90102C0660F771F8A95E2F7CB018095CB
S11301D084238BBB0895413069F448B321E030E0B7
S11301E0B90102C0660F771F8A95E2F7CB01842B11
S11301F088BB089541114BC048B321E030E0B901F8
S113020002C0660F771F8A95E2F7CB01809584239D
S113021088BB0895413069F445B321E030E0B90169
S113022002C0660F771F8A95E2F7CB01842B85BB4A
S1130230089541112CC045B321E030E0B90102C05A
S1130240660F771F8A95E2F7CB018095842385BBDF
S11302500895413069F442B321E030E0B90102C0AD
S1130260660F771F8A95E2F7CB01842B82BB089532
S113027041110DC042B321E030E0B90102C0660F64
S1130280771F8A95E2F7CB018095842382BB08957A
S11302908330D1F118F4823041F00895843009F4A8
S11302A062C0853009F48EC008956130A9F40EC08F
S11302B04AB381E090E0022E02C0880F991F0A948D
S11302C0E2F7842B8ABB2F5F3F4F02C020E030E06F
S11302D02830310568F30895662381F008954AB300
S11302E081E090E0022E02C0880F991F0A94E2F781
S11302F0809584238ABB2F5F3F4F02C020E030E00B
S11303002830310560F308956130A9F40EC047B375
S113031081E090E0022E02C0880F991F0A94E2F750
S1130320842B87BB2F5F3F4F02C020E030E0283092
S1130330310568F30895662381F0089547B381E099
S113034090E0022E02C0880F991F0A94E2F780956C
S1130350842387BB2F5F3F4F02C020E030E028306A
S1130360310560F308956130A9F40EC044B381E00F
S113037090E0022E02C0880F991F0A94E2F7842BA2
S113038084BB2F5F3F4F02C020E030E028303105AE
S113039068F30895662381F0089544B381E090E002
S11303A0022E02C0880F991F0A94E2F780958423D5
S11303B084BB2F5F3F4F02C020E030E0283031057E
S11303C060F308956130A9F40EC041B381E090E078
S11303D0022E02C0880F991F0A94E2F7842B81BB76
S11303E02F5F3F4F02C020E030E02830310568F332
S11303F00895662381F0089541B381E090E0022ED0
S113040002C0880F991F0A94E2F78095842381BB68
S11304102F5F3F4F02C020E030E02830310560F309
S11304200895833059F018F4823031F008958430FF
S113043039F0853039F008956BBB089568BB089591
S113044065BB089562BB08956330A1F018F462306F
S113045031F031C06430C9F0653011F12CC029B3DA
S113046030E0A90102C0559547958A95E2F7CA0183
S11304708170089526B330E0A90102C055954795CF
S11304808A95E2F7CA018170089523B330E0A90187
S113049002C0559547958A95E2F7CA01817008957F
S11304A020B330E0A90102C0559547958A95E2F73B
S11304B0CA018170089580E0089541E065E080E01C
S11304C00E94360040E062E084E00E94360041E091
S11304D062E084E00E94BF0061E084E00E94480181
S11304E061E084E00E94110262E084E00E94240240
S11304F080FDFACF41E065E080E00E94BF002FE973
S113050086E891E0215080409040E1F700C000006F
S113051040E065E080E00E94BF002FE986E891E0BA
S1130520215080409040E1F700C00000DDCFF894F6
S1050530FFCFF7
S9030000FC
