:100000000C942A000C9447000C9447000C94470071
:100010000C9447000C9447000C9447000C94470044
:100020000C9447000C9447000C9447000C94470034
:100030000C9456030C9447000C9447000C94470012
:100040000C9447000C9447000C9447000C94470014
:100050000C94470011241FBECFE5D8E0DEBFCDBF12
:1000600010E0A0E6B0E0ECECF7E002C005900D92E5
:10007000AA36B107D9F720E0AAE6B0E001C01D9288
:10008000A537B207E1F70E942B020C94E4030C940D
:100090000000613039F138F0623009F442C0633059
:1000A00009F45EC00895413069F44AB321E030E0BC
:1000B000B90102C0660F771F8A95E2F7CB01842B46
:1000C0008ABB089541116AC04AB321E030E0B9010A
:1000D00002C0660F771F8A95E2F7CB0180958423D3
:1000E0008ABB0895413069F447B321E030E0B9019B
:1000F00002C0660F771F8A95E2F7CB01842B87BB7E
:10010000089541114BC047B321E030E0B90102C06E
:10011000660F771F8A95E2F7CB018095842387BB12
:100120000895413069F444B321E030E0B90102C0E0
:10013000660F771F8A95E2F7CB01842B84BB089565
:1001400041112CC044B321E030E0B90102C0660F78
:10015000771F8A95E2F7CB018095842384BB0895AD
:10016000413069F441B321E030E0B90102C0660FCB
:10017000771F8A95E2F7CB01842B81BB089541114B
:100180000DC041B321E030E0B90102C0660F771F16
:100190008A95E2F7CB018095842381BB0895613075
:1001A00039F138F0623009F442C0633009F45EC0BE
:1001B0000895413069F44BB321E030E0B90102C049
:1001C000660F771F8A95E2F7CB01842B8BBB0895CE
:1001D00041116AC04BB321E030E0B90102C0660FA3
:1001E000771F8A95E2F7CB01809584238BBB089516
:1001F000413069F448B321E030E0B90102C0660F34
:10020000771F8A95E2F7CB01842B88BB08954111B3
:100210004BC048B321E030E0B90102C0660F771F40
:100220008A95E2F7CB018095842388BB08954130FD
:1002300069F445B321E030E0B90102C0660F771FD1
:100240008A95E2F7CB01842B85BB089541112CC020
:1002500045B321E030E0B90102C0660F771F8A95EF
:10026000E2F7CB018095842385BB0895413069F482
:1002700042B321E030E0B90102C0660F771F8A95D2
:10028000E2F7CB01842B82BB089541110DC042B32C
:1002900021E030E0B90102C0660F771F8A95E2F7CE
:1002A000CB018095842382BB08958130B9F138F069
:1002B000823009F462C0833009F48EC00895613041
:1002C000A9F40EC04AB381E090E0022E02C0880F6C
:1002D000991F0A94E2F7842B8ABB2F5F3F4F02C01D
:1002E00020E030E02830310568F30895662381F07E
:1002F00008954AB381E090E0022E02C0880F991F52
:100300000A94E2F7809584238ABB2F5F3F4F02C097
:1003100020E030E02830310560F308956130A9F421
:100320000EC047B381E090E0022E02C0880F991FF3
:100330000A94E2F7842B87BB2F5F3F4F02C020E077
:1003400030E02830310568F30895662381F0089580
:1003500047B381E090E0022E02C0880F991F0A94F3
:10036000E2F78095842387BB2F5F3F4F02C020E0D8
:1003700030E02830310560F308956130A9F40EC0F3
:1003800044B381E090E0022E02C0880F991F0A94C6
:10039000E2F7842B84BB2F5F3F4F02C020E030E0A8
:1003A0002830310568F30895662381F0089544B339
:1003B00081E090E0022E02C0880F991F0A94E2F7B4
:1003C0008095842384BB2F5F3F4F02C020E030E044
:1003D0002830310560F308956130A9F40EC041B3AF
:1003E00081E090E0022E02C0880F991F0A94E2F784
:1003F000842B81BB2F5F3F4F02C020E030E02830CC
:10040000310568F30895662381F0089541B381E0D2
:1004100090E0022E02C0880F991F0A94E2F780959F
:10042000842381BB2F5F3F4F02C020E030E02830A3
:10043000310560F30895813041F028F0823039F0C1
:10044000833039F008956BBB089568BB089565BB90
:10045000089562BB0895CF93DF9300D000D000D001
:10046000CDB7DEB786E0E4E6F0E0DE01119601905C
:100470000D928A95E1F761E082E00E94550160E00B
:1004800080E00E9455016FEF80E00E941B020F2E5A
:10049000FFE0CF2EF02D0F2EFDE0EF2EF02D08E027
:1004A00026E043E061E080E10E9407038FE493ECE3
:1004B0000197F1F700C00000CE0101960E943803B9
:1004C000FFCF41E061E084E00E94490040E061E04C
:1004D00084E00E94CF0041E061E085E00E94490095
:1004E00040E061E086E00E94490041E061E087E091
:1004F0000E9449008DB180618DB98DB180648DB944
:10050000089540E061E084E00E94490040E061E03D
:1005100085E00E94490041E061E086E00E944900D8
:1005200040E061E087E00E9449008DB18F7E8DB987
:100530008DB180648DB90895882319F0813041F020
:1005400008958DB180688DB98FB780688FBF089589
:100550008DB18F778DB90895823019F0833029F0ED
:1005600008958DB180628DB908958DB18F7D8DB95B
:100570000895863019F0873029F008958DB1877F6E
:100580008DB908958DB188608DB90895883019F0BE
:10059000893029F008958DB18B7F8DB908958DB183
:1005A00084608DB908958B3081F018F48A3031F071
:1005B00008958C3089F08D30B1F008958DB18E7F23
:1005C0008DB98DB18D7F8DB908958DB181608DB953
:1005D0008DB18D7F8DB908958DB18E7F8DB98DB11F
:1005E00082608DB908958DB181608DB98DB18260C1
:1005F0008DB908958E3019F08F3029F008958EB19D
:1006000081608EB908958EB18E7F8EB90895CF9294
:10061000EF920F931F93CF93DF93C82F862F142F42
:10062000D22F0E949C02812F0E94AC028D2F0E942B
:10063000B902802F0E94C6028E2D0E94D3028C2DFB
:100640000E94FA02C03119F0C13121F005C00E94A8
:10065000610202C00E948102DF91CF911F910F9130
:10066000EF90CF9008958FB9779BFECF8FB108950B
:10067000EF92FF920F931F93CF93DF937C01C0E023
:10068000D0E005C00E943303F801808321968701E2
:100690000C0F1D1FF80180818111F4CFC701DF917C
:1006A000CF911F910F91FF90EF9008951F920F929D
:1006B0000FB60F9211242F933F934F935F936F9335
:1006C0007F938F939F93AF93BF93EF93FF9380910B
:1006D0006A00813039F008F461C0823081F18430E1
:1006E00029F061C08FB1809370005DC0809162007D
:1006F00090916300E0917100F0917200E80FF91F92
:100700002081222389F02FB1DC01A659BF4F2C9301
:1007100080818FB9809162009091630001969093DF
:100720006300809362003FC021113DC081E090E0F2
:10073000909363008093620010926A0034C08091AD
:100740006200909163002091600030916100281751
:100750003907C0F02FB1FC01E659FF4F20832091EB
:10076000710030917200F901E80FF91F80818FB993
:100770008091620090916300019690936300809352
:10078000620011C02817390770F481E090E090935F
:1007900063008093620010926A0005C0E0917300CC
:1007A000F09174000995FF91EF91BF91AF919F91E6
:1007B0008F917F916F915F914F913F912F910F900A
:0C07C0000FBE0F901F901895F894FFCF0B
:0A07CC0005000100010204080F00FF
:00000001FF
