S01500004558545F496E746572727570742E73726563F2
S11300000C942A000C94C9010C94F0010C9417026E
S11300100C943C000C943C000C943C000C943C006C
S11300200C943C000C943C000C943C000C943C005C
S11300300C943C000C943C000C943C000C943C004C
S11300400C943C000C943C000C943C000C943C003C
S11300500C943C0011241FBECFE5D8E0DEBFCDBF19
S113006020E0A0E6B0E001C01D92A636B207E1F799
S11300700E947A020C94B9020C940000633051F18E
S113008018F4623041F00895643009F442C06530D8
S113009009F45EC00895413069F44AB321E030E0C8
S11300A0B90102C0660F771F8A95E2F7CB01842B52
S11300B08ABB089541116AC04AB321E030E0B90116
S11300C002C0660F771F8A95E2F7CB0180958423DF
S11300D08ABB0895413069F447B321E030E0B901A7
S11300E002C0660F771F8A95E2F7CB01842B87BB8A
S11300F0089541114BC047B321E030E0B90102C07B
S1130100660F771F8A95E2F7CB018095842387BB1E
S11301100895413069F444B321E030E0B90102C0EC
S1130120660F771F8A95E2F7CB01842B84BB089571
S113013041112CC044B321E030E0B90102C0660F84
S1130140771F8A95E2F7CB018095842384BB0895B9
S1130150413069F441B321E030E0B90102C0660FD7
S1130160771F8A95E2F7CB01842B81BB0895411157
S11301700DC041B321E030E0B90102C0660F771F22
S11301808A95E2F7CB018095842381BB089563307F
S113019051F118F4623041F00895643009F442C01A
S11301A0653009F45EC00895413069F44BB321E031
S11301B030E0B90102C0660F771F8A95E2F7CB01E0
S11301C0842B8BBB089541116AC04BB321E030E00E
S11301D0B90102C0660F771F8A95E2F7CB018095BB
S11301E084238BBB0895413069F448B321E030E0A7
S11301F0B90102C0660F771F8A95E2F7CB01842B01
S113020088BB089541114BC048B321E030E0B901E7
S113021002C0660F771F8A95E2F7CB01809584238D
S113022088BB0895413069F445B321E030E0B90159
S113023002C0660F771F8A95E2F7CB01842B85BB3A
S1130240089541112CC045B321E030E0B90102C04A
S1130250660F771F8A95E2F7CB018095842385BBCF
S11302600895413069F442B321E030E0B90102C09D
S1130270660F771F8A95E2F7CB01842B82BB089522
S113028041110DC042B321E030E0B90102C0660F54
S1130290771F8A95E2F7CB018095842382BB08956A
S11302A09FB790689FBF853061F1863009F44FC0D5
S11302B0843009F05AC08BB780648BBF633039F443
S11302C085B78E7F85BF85B78D7F85BF1AC06230A5
S11302D039F485B7816085BF85B78D7F85BF11C02F
S11302E0611107C085B7826085BF85B78E7F85BFE2
S11302F008C0613031F485B7816085BF85B78260FD
S113030085BF8BB780688BBF633039F485B78B7F2B
S113031085BF85B7877F85BF1AC0623039F485B73A
S1130320846085BF85B7877F85BF11C0611107C011
S113033085B7886085BF85B78B7F85BF08C061306E
S113034031F485B7846085BF85B7886085BF8BB776
S113035080628BBF611104C084B78F7B84BF089512
S1130360613019F484B7806484BF0895653041F026
S1130370663051F0643061F49093610080936000C2
S1130380909365008093640090936300809362006F
S113039008951F920F920FB60F9211242F933F933B
S11303A04F935F936F937F938F939F93AF93BF9379
S11303B0EF93FF93E0916000F09161000995FF9144
S11303C0EF91BF91AF919F918F917F916F915F91C9
S11303D04F913F912F910F900FBE0F901F90189542
S11303E01F920F920FB60F9211242F933F934F93A6
S11303F05F936F937F938F939F93AF93BF93EF9389
S1130400FF93E0916400F09165000995FF91EF91ED
S1130410BF91AF919F918F917F916F915F914F9118
S11304203F912F910F900FBE0F901F9018951F9220
S11304300F920FB60F9211242F933F934F935F9314
S11304406F937F938F939F93AF93BF93EF93FF9398
S1130450E0916200F09163000995FF91EF91BF91E3
S1130460AF919F918F917F916F915F914F913F9148
S11304702F910F900FBE0F901F90189541E064E0EC
S113048080E00E94C7002FE38DE093E0215080407C
S11304909040E1F700C0000040E064E080E00E948A
S11304A0C700089541E064E080E00E94C7002FE7A0
S11304B08AE196E0215080409040E1F700C00000BE
S11304C040E064E080E00E94C700089541E064E0F9
S11304D080E00E94C7002FEB87E299E02150804022
S11304E09040E1F700C0000040E064E080E00E943A
S11304F0C700089540E063E082E00E943E0041E0CE
S113050063E082E00E94C70040E065E082E00E9470
S11305103E0041E065E082E00E94C70040E065E003
S113052083E00E943E0041E065E083E00E94C70052
S113053060E084E00E94500160E085E00E94500188
S113054060E086E00E94500141E064E080E00E94A7
S11305503E0064E08EE392E00E94B60165E082E52D
S113056092E00E94B60166E086E692E00E94B6013F
S1090570FFCFF894FFCF59
S9030000FC
