:100000000C942A000C9447000C9447000C94470071
:100010000C9447000C9447000C9447000C94470044
:100020000C9447000C9447000C9447000C94470034
:100030000C9447000C949B000C9447000C944A00CD
:100040000C9447000C9447000C9447000C94470014
:100050000C94470011241FBECFE5D8E0DEBFCDBF12
:1000600010E0A0E6B0E0E6EDF1E002C005900D92F0
:10007000A236B107D9F720E0A2E6B0E001C01D9298
:10008000A13DB207E1F70E9449000C94E9000C94ED
:100090000000FFCF1F920F920FB60F9211242F93E3
:1000A0003F934F935F936F937F938F939F93AF9300
:1000B000BF93EF93FF9380916300882331F18230E7
:1000C00049F58091CF009091D000E0916000F091CF
:1000D0006100E80FF91F2081222359F02CB980918B
:1000E00060009091610001969093610080936000A0
:1000F00011C0892B79F41CB881E090E090936100E5
:10010000809360001092630005C0E0916700F09159
:1001100068000995FF91EF91BF91AF919F918F91E9
:100120007F916F915F914F913F912F910F900FBEF3
:100130000F901F9018951F920F920FB60F921124D7
:100140002F933F934F935F936F937F938F939F93DF
:10015000AF93BF93EF93FF9380916300833029F0B7
:10016000843039F0811124C01EC08CB180936400AA
:100170001FC090916200292F30E08CB1F901E55940
:10018000FF4F8083882321F09F5F9093620010C00F
:1001900081110EC0F901E559FF4F108210926200E3
:1001A0001092630005C0E0916500F091660009952A
:1001B000FF91EF91BF91AF919F918F917F916F913F
:1001C0005F914F913F912F910F900FBE0F901F9015
:0601D0001895F894FFCF22
:0201D600010026
:00000001FF
