S01200004932435F4472697665722E7372656389
S11300000C942A000C9434000C9434000C943400A6
S11300100C9434000C9434000C9434000C9434008C
S11300200C9434000C9434000C9434000C9434007C
S11300300C9434000C9434000C9434000C9434006C
S11300400C9434000C9434000C9434000C9434005C
S11300500C94340011241FBECFE5D8E0DEBFCDBF21
S11300600E9436000C94FD000C94000041E06EE107
S113007080E00E9441004AE064E182E30E9485003E
S1130080FFCFCF93C82F442359F1413001F162B916
S1130090AC2FB0E020E43DE043E050E00E94E300F8
S11300A09B01AC0160E078EA81E690E00E94C10027
S11300B020B9C13019F1D8F0C23059F0C33011F46D
S11300C0089A099A86B7846086BFCF9108950898E4
S11300D0DECF0898099A86B7846086BFCF910895C9
S11300E086B7816086BF8FB780688FBFD0CF0898EE
S11300F0099886B7846086BFCF910895089A0998B5
S113010086B7846086BFCF91089596B7977096BFDF
S113011096B7906896BF96B7906296BF06B607FEEC
S1130120FDCF91B1880F96B7977096BF83B986B704
S1130130806886BF06B607FEFDCF81B186B787709B
S113014086BF63B986B7806886BF06B607FEFDCF53
S113015081B186B7877086BF43B986B7806886BF8A
S113016006B607FEFDCF81B186B7877086BF86B716
S1130170806886BF86B7806186BF06B607FEFDCF5E
S11301800895A1E21A2EAA1BBB1BFD010DC0AA1FD4
S1130190BB1FEE1FFF1FA217B307E407F50720F0EC
S11301A0A21BB30BE40BF50B661F771F881F991F67
S11301B01A9469F760957095809590959B01AC01B0
S11301C0BD01CF0108950E94EE00A59F900DB49F3C
S11301D0900DA49F800D911D11240895A29FB0013C
S11301E0B39FC001A39F700D811D1124911DB29F67
S11101F0700D811D1124911D0895F894FFCF08
S9030000FC
